:020000040800F2
:1000000000000220E10200082D2200082922000839
:100010002B220008EB0F00086D29000800000000EB
:100020000000000000000000000000003122000875
:10003000ED0F0008000000002F2200083322000806
:10004000FB020008FB020008FB020008FB0200089C
:10005000FB020008FB020008FB020008FB0200088C
:10006000FB020008FB020008FB020008FB0200087C
:10007000FB020008FB020008FB020008FB0200086C
:10008000FB020008FB020008FB020008FB0200085C
:10009000FB020008FB020008FB020008FB0200084C
:1000A000FB020008FB020008FB020008FB0200083C
:1000B000FB020008FB020008FB020008FB0200082C
:1000C000FB020008FB020008FB020008FB0200081C
:1000D000FB020008FB020008FB020008FB0200080C
:1000E000FB020008FB02000800000000FB02000801
:1000F000FB020008FB020008FB020008FB020008EC
:10010000FB020008FB020008FB020008FB020008DB
:10011000FB020008FB020008FB020008FB020008CB
:10012000FB020008FB020008FB020008FB020008BB
:10013000FB020008FB020008FB020008FB020008AB
:1001400000000000000000000000000000000000AF
:10015000FB020008FB020008FB020008FB0200088B
:10016000FB020008FB020008FB020008FB0200087B
:10017000FB020008FB020008FB0200080000000070
:10018000FB020008FB020008FB020008FB0200085B
:10019000FB020008FB020008FB020008FB0200084B
:1001A000FB020008FB020008FB0200080000000040
:1001B000FB020008FB020008FB020008FB0200082B
:1001C000FB020008FB020008000000000000000025
:1001D0000000000000000000FB020008000000001A
:1001E000000000000000000000000000000000000F
:1001F0000000000000000000FB020008FB020008F5
:10020000FB020008FB02000800000000FB020008DF
:10021000FB020008FB020008FB020008FB020008CA
:10022000FB02000800000000FB02000800000000C4
:10023000FB020008FB02000800000000FB020008AF
:10024000FB020008FB020008FB020008FB0200089A
:10025000FB020008FB020008FB020008FB0200088A
:10026000FB020008FB020008FB020008FB0200087A
:10027000FB020008FB020008FB020008000000006F
:10028000FB020008FB020008FB020008FB0200085A
:1002900000000000FB020008FB0200080000000054
:1002A00000000000FB020008FB020008FB0200083F
:1002B000FB020008FB020008FB020008FB0200082A
:1002C000FB020008FB020008FB020008DFF80CD06C
:1002D00000F00AFE00480047E54C0008000002203C
:1002E0000648804706480047FEE7FEE7FEE7FEE7D0
:1002F000FEE7FEE7FEE7FEE7FEE7FEE7392200083D
:10030000CD0200089FED3E0A5FEA920C59D000BF73
:10031000D0ED000A90ED011A0B1D60EEA00A083026
:1003200041EE010AF5EEC00AF1EE10FAA6BFB1EEF9
:10033000E01A81ED001A81ED000AD0ED000A90ED7F
:10034000011A00F1080160EEA00A181D41EE010A31
:10035000F5EEC00AF1EE10FAA6BFB1EEE01A83ED99
:10036000001A83ED000AD1ED000A91ED011A031D78
:1003700060EEA00A083141EE010AF5EEC00AF1EE86
:1003800010FAA6BFB1EEE01A80ED001A80ED000A67
:10039000D1ED000A91ED011A081D60EEA00A191DA9
:1003A000001D41EE010AF5EEC00AF1EE10FAA6BFFB
:1003B000B1EEE01A83ED001A83ED000ABCF1010CE6
:1003C000A6D112F0030208BF704700BFD0ED000AAB
:1003D00090ED011A08300B4660EEA00A091D41EEAF
:1003E000010AF5EEC00AF1EE10FAA6BFB1EEE01A6E
:1003F00083ED001A83ED000A521EE7D1704700001A
:10040000000000002DE9F00F5FEA510C34D000EB42
:10041000CC05044616466746D4ED001AD5ED002AF1
:10042000D4ED013A95ED012A71EEE20A96ED003A1B
:1004300096ED011A33EEC20A71EEA22A63EE201A7B
:1004400061EE200A21EE001A23EE000A32EE232A82
:10045000C4ED002A31EE811A84ED012A30EE600AE3
:1004600085ED001A7F1E85ED010A06EBC30604F137
:10047000080405F10805CFD14FF6FF7BE146BCF13A
:10048000020F0BEA430A44D94FF0000865464FEAD1
:100490005C0C474602EBC803D04493ED001AD3ED41
:1004A000010A3B4603EB0C0400EBC30600EBC4045B
:1004B00096ED012AD4ED013A96ED003AD4ED002AEA
:1004C00072EE631A33EE822A33EE620A33EE223A78
:1004D00061EE812A61EEA01A60EE013A20EE200A58
:1004E00086ED003A86ED012A73EEA11A32EEC00ABB
:1004F0002B44C4ED001A8B4284ED010AD2D37F1C39
:10050000BC45C7D84FEA5909B9F1020F0BEA4A0AAC
:10051000BAD8002919BF491C5FEA5101BDE8F00FA4
:10052000704700BF90ED001AD0ED022AD0ED011AFD
:10053000D0ED030A31EE620A31EE221A31EEE02AE2
:1005400070EEA10A80ED001A491EC0ED010A80ED8F
:10055000020A80ED032A00F11000E3D1BDE8F00F9C
:1005600070472DE9F00F5FEA5109CC4634D000EB1B
:10057000CC05044616464F4694ED014AD5ED013AA6
:10058000D4ED002A95ED002A74EE630AD6ED001A28
:1005900096ED013A32EEC21A73EE843A32EE824A96
:1005A00063EE202A21EE812A23EE011A61EEA00AD1
:1005B00084ED004A72EE621AC4ED013A70EE810ACF
:1005C000C5ED001A7F1EC5ED010A06EBC30604F156
:1005D000080405F10805CFD14FF6FF7BB9F1020FF2
:1005E0000BEA430A45D900BF4FF0000865464FEAC1
:1005F0005C0C474602EBC803D044D3ED001A93EDE0
:10060000011A3B4603EB0C0400EBC30600EBC404E9
:1006100096ED013AD4ED012AD6ED003A94ED004A68
:1006200033EE622A32EE833A73EEC40A73EE843AF2
:1006300062EE212A22EE012A20EEA14A60EE810A12
:10064000C6ED003A86ED013A34EE422A72EEA00A77
:100650002B4484ED002A8B42C4ED010AD2D37F1CC7
:10066000BC45C7D84FEA5909B9F1020F0BEA4A0A4B
:10067000BAD8002919BF491C5FEA5101BDE8F00F43
:10068000704700BF90ED002AD0ED020AD0ED031AAA
:1006900090ED011A32EE603A32EE202A71EE812A94
:1006A00031EE611A63EE000A22EE002A62EE801A31
:1006B00021EE001A80ED002AC0ED011AC0ED020AF9
:1006C00080ED031A491E00F11000DBD1BDE8F00FE8
:1006D000704770B5044680780D4601282188A389AB
:1006E00062680ED02846FFF78DFEE078012818BF1B
:1006F00070BDE28928462188A368BDE8704000F0FB
:10070000ABB894ED040A2846FFF72BFFEDE7000095
:1007100082700022C370B1F5807F3C4B0180436042
:1007200041D008DC102966D020295AD040294ED06B
:10073000802942D00BE0B1F5007F2AD0B1F5806F5F
:100740001DD0B1F5006F10D0B1F5805F03D04FF030
:10075000FF32104670472F4B01219FED2D0A836019
:1007600080ED040A8181C181F3E72B4B0221818155
:100770009FED2A0A8360C18180ED040AE9E7284BD6
:10078000042181819FED270A8360C18180ED040AE5
:10079000DFE7254B082181819FED240A8360C18119
:1007A00080ED040AD5E7224B102181819FED210ABB
:1007B0008360C18180ED040ACBE71F4B202181813A
:1007C0009FED1E0A8360C18180ED040AC1E71C4BC6
:1007D000402181819FED1B0A8360C18180ED040A65
:1007E000B7E7194B802181819FED180A8360C18191
:1007F00080ED040AADE7164B4FF4807181819FEDC7
:10080000150A8360C18180ED040AA2E7F45500084F
:1008100000008039F44D0008F64D00080000003A51
:10082000FA4D00080000803A024E00080000003B2C
:10083000124E00080000803B324E00080000003CD1
:10084000724E00080000803CF24E00080000003D9F
:10085000F24F00080000803D2DE9F0074FF0010C39
:100860000CEB51094FF0000C4FEA51086146A8F11A
:10087000020A2DE061452BD200EBCC0400EBC10550
:10088000D4ED000A95ED000AC5ED000A84ED000ADA
:10089000D4ED010A0CEB090695ED010A01EB0907FD
:1008A000C5ED010A00EBC60684ED010A00EBC7079F
:1008B000D6ED000A97ED000AC7ED000A86ED000AA2
:1008C000D6ED010A97ED010AC7ED010A86ED010A8E
:1008D000C44400EBC10400EBCC0C94ED020ADCED47
:1008E000000A891CC4ED020A8CED000ADCED010A45
:1008F00094ED030AC4ED030A8CED010A89B2B3F842
:1009000000C0514503EB4203B4D9BDE8F00770477E
:100910002DE9F04F4FF0010C0CEB51094FF0000C9A
:100920004FEA51086146A8F1020A25E0614523D249
:1009300000EBC10600EBCC0501EB0907D6F800E09F
:100940000CEB0904D5F800B000EBC707C6F800B0FF
:1009500000EBC404C5F800E0D6F804E0D5F804B014
:10096000C6F804B0C5F804E03D6826683E6025601E
:100970007D6866687E606560C44400EBC10400EB7E
:10098000CC0C891CA5685145DCF80060A660CCF849
:100990000050E668DCF80450E560CCF80460B3F879
:1009A00000C003EB4203C1D9BDE8F08F2DE9F00F81
:1009B0004F084FF0010C0CEB51084FF0000C7C0875
:1009C00004BFBDE8F00F704700EB88050146002624
:1009D00015E000BFBCEB460F11D950F82CB00CEB62
:1009E0000809D1F800A0C1F800B040F82CA050F8D8
:1009F00029B0D5F800A0C5F800B040F829A0BC4443
:100A0000D1F8049005F1080506F1010650F82CA074
:100A1000C1F804A0083140F82C90B3F800C0641E5F
:100A200003EB4203D6D1BDE8F00F70472DE9F05F2C
:100A30000546002092469B4688460646814640244D
:100A40001BE0284641464746224600F085F85346BB
:100A50005A46C01A914110D311461846224600F05A
:100A60006CF82D1A67EB01084F4622460120002141
:100A700000F063F817EB00094E41201EA4F10104B9
:100A8000DFDC484631462A464346BDE8F09F10B5B4
:100A9000431A934209D28318881803E010F8011D05
:100AA00003F8011D521EF9D210BD40EA01039B0755
:100AB00003D009E008C9121F08C0042AFAD203E0D3
:100AC00011F8013B00F8013B521EF9D210BDD2B221
:100AD00001E000F8012B491EFBD270470022F6E727
:100AE00010B513460A4604461946FFF7F0FF2046A4
:100AF00010BD10B54843044604F02AF9002805D07B
:100B00000021002C02D0641E0155FAE710BD30B55B
:100B10000B46014600202022012409E021FA02F5BB
:100B20009D4205D303FA02F5491B04FA02F5284455
:100B3000151EA2F10102F1DC30BD202A04DB203AAF
:100B400000FA02F1002070479140C2F1200320FA20
:100B500003F3194390407047202A04DB203A21FA1E
:100B600002F00021704721FA02F3D040C2F12002C6
:100B700091400843194670472DE9FE4F804681EAAF
:100B80000300C00F0C46009021F0004123F0004507
:100B9000B8EB0200A94105D24046214690461C46CA
:100BA0000B46024623F00040104347D0270DC7F301
:100BB0000A00C3F30A510290401A019040286BDAF0
:100BC000C3F3130040F4801B0098924620B1002329
:100BD000D2EB030A63EB0B0B01985946C0F14002BC
:100BE0005046FFF7AAFF06460D4650465946019A61
:100BF00000F08CF910EB08006141002487EA1152E3
:100C000084EAE7731A4340D0009A62B3019A012A3A
:100C10004FEA075215DC001B61EB02014FF0004266
:100C200002EA0752CDE90042001C41F5801132462C
:100C30002B4600F08CF903B0BDE8F08F404621460A
:100C4000F9E7001B61EB0201001C41F5801300185D
:100C50005B412018A2F5001747EB030140EAD5706D
:100C6000B6196D4111E06D084FEA360645EAC075C8
:100C70004FEA0752001B61EB0201001C41F5801195
:100C800049084FEA30000019514132462B4603B063
:100C9000BDE8F04F00F04CB900980122400000235D
:100CA000D0EB020263EBE073009821464FEAE07458
:100CB000B8EB000061EB0401E9E783F000435BE778
:100CC00081F0004158E72DE9FE4F81EA030404F06A
:100CD000004421F0004100944FF0000B23F000434A
:100CE00050EA01045ED052EA03045BD0C3F30A5415
:100CF000C1F30A552C44A4F2F3340194A0FB02542E
:100D0000C1F3130141F48011C3F3130343F48013BF
:100D100001FB024400FB034E840A970A44EA815413
:100D200047EA8357A4FB076802958D0A05FB0785F0
:100D30004FEA932C04FB0C542705029D4FEA0658FA
:100D400047EA1637B5EB08056EEB070C870E920ED7
:100D500047EA811742EA8312A7FB0201B6EB0B01B7
:100D600064EB00042B0D43EA0C335E1844EB1C507B
:100D7000DA465146E7FB0201C5F313044FEA0B3391
:100D800043EA14534FEA0432019C43EA0603A4F1F8
:100D90000C040294009CCDE900B400F0D8F803B034
:100DA000BDE8F08F00200146F9E72DE9F04D81EA1A
:100DB000030404F0004B21F0004514464FF0000AF4
:100DC00023F0004150EA050220D054EA01021DD070
:100DD000C5F30A570246C5F31303C1F31300C1F369
:100DE0000A5640F4801543F48013A7EB0608101B45
:100DF000D64608F2FD3873EB050002D308F101086E
:100E000001E092185B41B8F1000F03DA00200146BF
:100E1000BDE8F08D00204FF48011064684460EE0B8
:100E2000171B73EB050705D3121B63EB0503064382
:100E30004CEA010C49084FEA300092185B4150EA35
:100E40000107EDD152EA030012D082EA040083EADE
:100E50000501084305D0101BAB4106D20122002337
:100E600006E000224FF0004302E06FF00102531051
:100E70001AEB06004CEB085110EB0A0041EB0B019A
:100E8000BDE8F04D00F054B8C1F30A52C1F31301AC
:100E900040F2FF3341F480119A4202DA0020014609
:100EA000704740F233439A42A2F2334202DC52428C
:100EB000FFF752BEFFF741BE30B5041E71F10004CA
:100EC00004DB4FF00044404264EB0101141E73F157
:100ED000000405DB1C464FF00043524263EB040361
:100EE000994208BF904230BD064C074D06E0E068CD
:100EF00040F0010394E8070098471034AC42F6D361
:100F0000FFF7E8F918D7000848D70008202A06DBC1
:100F1000CB17203A41FA02F043EAE07306E041FAC7
:100F200002F3D040C2F120029140084319467047B5
:100F300010B5141E73F1000408DA401C41F10001E1
:100F400092185B411A4301D120F0010010BD2DE938
:100F5000F04D92469B4611B1B1FA81F202E0B0FA2F
:100F600080F220329046FFF7E8FD04460F4640EA43
:100F70000A0041EA0B0153465A46084313D0114672
:100F800053EA010019D0C8F140025046FFF7E4FDD2
:100F900005460E46504659464246FFF7CEFD0843E9
:100FA00005D0012004E020463946BDE8F08D002040
:100FB000054346EAE0762C4337430A986305E40A82
:100FC000A0EB08000022FD0A44EA47540A3002D58B
:100FD00000200146E9E7010510196941DDE90845EE
:100FE00000196941BDE8F04DA2E7FEE77047000037
:100FF0002DE9F84F03247A4D00234FF001094FF0FB
:10100000B04B4FF00F0AE4E009FA03F6324078D013
:101010000F7907F00307012F01D0022F1AD187683B
:101020004FEA430ED1F80CC004FA0EF827EA08077D
:101030000CFA0EFC4CEA070CC0F808C0476891F89F
:1010400004C0B743CCF3001C0CFA03FC4CEA070CB9
:10105000C0F804C00E79F643B6070BD0C6684FEA55
:1010600043088F6804FA08FC26EA0C0607FA08F71A
:101070003743C7600E7906F00306022E12D1DE0850
:101080000F694FEA437C00EB8606B646366A4FEAA4
:10109000DC6C0AFA0CF807FA0CF726EA0806374364
:1010A000CEF820700F7906684FEA430807F003076F
:1010B00004FA08FC07FA08F726EA0C06374307602B
:1010C0004E6816F4403F1CD0464E376847F0020782
:1010D000376036689F0706F00206009623F0030685
:1010E00006F1B046B6463F0FD6F80864DFF8F88040
:1010F0000AFA07FC404526EA0C0603D14FF0000C23
:101100003AE065E0DFF8E4C0604502D14FF0010C41
:1011100032E0DFF8DCC0604502D14FF0020C2BE07A
:10112000DFF8D0C0604502D14FF0030C24E0DFF8B7
:10113000C8C0604502D14FF0040C1DE0DFF8BCC010
:10114000604502D14FF0050C16E0DFF8B4C06045F1
:1011500002D14FF0060C0FE0DFF8A8C0604502D1C5
:101160004FF0070C08E0DFF8A0C0604502D14FF057
:10117000090C01E04FF00A0C0CFA07FC4CEA060CD3
:10118000CEF808C44F68DBF80060FF0226EA0206CA
:1011900000D516435F46CBF80060D1F804C0DBF8F9
:1011A00004605FEA8C2C26EA020600D516437E60B6
:1011B0006E684F6826EA0206BF0300D516436E60CC
:1011C0002E684F6826EA0206FF0300D516432E60FC
:1011D0005B1C0A6832FA03F67FF416AFBDE8F88F9D
:1011E00080000058F44402580000025800040258DD
:1011F00000080258000C025800100258001402584F
:1012000000180258001C0258002402580148806847
:1012100070470000000000240248816802781144F1
:101220008160704700000024032010B500F078F8BA
:1012300000F07CFB0F4A104914681368C4F30322C2
:1012400003F00F038A5CC95C02F01F0201F01F016A
:10125000D0400A4A20FA01F11160094908600F20C4
:1012600000F010F808B1012010BD00F02BF80020AC
:1012700010BD000018440258E44D0008100000247E
:101280000C00002470B50D4D04462878A0B14FF431
:101290007A71B1FBF0F00A490968B1FBF0F000F097
:1012A00074FE48B9102C07D200222146501E00F0CF
:1012B00017F800206C6070BD012070BD0000002494
:1012C0000C000024054808B5016841F002010160E6
:1012D000006800F00200009008BD0000F4440258CD
:1012E0000E4BF0B41B680D46C3F30223C3F107068F
:1012F000042E00D90426191D072901D2002300E07D
:10130000DB1E012404FA06F19C40491E2940641E9C
:10131000994014402143F0BC01F052BB0CED00E0B9
:10132000064900F0070210B54FF6FF040868044BA9
:10133000204040EA02201843086010BD0CED00E098
:101340000000FA05134970B50A68D243520705D563
:10135000096801F00701814213D118E00A6822F000
:10136000070202430A60FFF751FF0A4D4FF47A76F5
:101370000446083D07E000BFFFF748FF001BB042EE
:1013800001D9012070BD2868C0438004F4D4002036
:1013900070BD00000C48025810B500F081FA0549F4
:1013A0000968054AC1F30211515C01F01F01C840F0
:1013B00010BD000020440258E44D0008494930B5F2
:1013C000484C0B1D0A68143409681D68246802F033
:1013D0000303C5F30012C1F30531C4F3CC040029A3
:1013E00014FB02F200EE102AF8EE400A75D03F4AD4
:1013F0009FED3D1AB7EE000A6BB1DFED3D1A012BF0
:1014000001D0022B64D002EE101A1168F8EE422AC5
:1014100081EEA22A21E0334C283C23689B0612D59A
:10142000344B246801EE901A1168C4F3C104F8EE3D
:10143000612AE34001EE903AC1F30801F8EE611A27
:1014400081EEA22A0BE001EE901ADFED2B2A00BFFD
:10145000F8EE611A116882EEA12AC1F3080101EECB
:10146000901A1168F8EE611A40EE811A71EE800A46
:1014700062EE200AC1F3462101EE101AB8EE411ABD
:1014800031EE001AC0EE811ABCEEE11A80ED001AAE
:101490001168C1F3064101EE101AB8EE411A31EE9F
:1014A000001AC0EE811ABCEEE11A80ED011A116833
:1014B000C1F3066101EE101AB8EE411A31EE000ACE
:1014C00080EE801ABCEEC10A80ED020A30BD04E055
:1014D00001EE901ADFED092ABAE7002101604160B0
:1014E0008160F3E72844025800000039384402586C
:1014F0000024744A0090D0030024744C20BCBE4BDE
:10150000494930B5484C0B1D0A681C3409681D68F0
:10151000246802F00303C5F30022C1F30551C4F3AC
:10152000CC04002914FB02F200EE102AF8EE400A67
:1015300075D03F4A9FED3D1AB7EE000A6BB1DFED63
:101540003D1A012B01D0022B64D002EE101A116853
:10155000F8EE422A81EEA22A21E0334C283C23688F
:101560009B0612D5344B246801EE901A1168C4F31F
:10157000C104F8EE612AE34001EE903AC1F308019C
:10158000F8EE611A81EEA22A0BE001EE901ADFED6F
:101590002B2A00BFF8EE611A116882EEA12AC1F36E
:1015A000080101EE901A1168F8EE611A40EE811AF6
:1015B00071EE800A62EE200AC1F3462101EE101A94
:1015C000B8EE411A31EE001AC0EE811ABCEEE11AF3
:1015D00080ED001A1168C1F3064101EE101AB8EE51
:1015E000411A31EE001AC0EE811ABCEEE11A80ED0C
:1015F000011A1168C1F3066101EE101AB8EE411A22
:1016000031EE000A80EE801ABCEEC10A80ED020ABB
:1016100030BD04E001EE901ADFED092ABAE700219F
:10162000016041608160F3E72844025800000039FE
:10163000404402580024744A0090D0030024744CA3
:1016400020BCBE4B2DE9F05F04000F467ED0DFF8D2
:101650003882D8F8000000F00F00B8420CD2D8F859
:10166000001021F00F013943C8F80010D8F800002D
:1016700000F00F00B84269D12078844D40070AD5A8
:101680002069296801F07001884204D9296821F095
:1016900070010143296020787C4E361D00070AD571
:1016A0006069316801F07001884204D9316821F025
:1016B0007001014331602078C0060AD5A069316805
:1016C00001F4E061884204D9316821F4E06101430A
:1016D00031602078DFF8B4B180060BF1080B0CD52F
:1016E000E1695846DBF8002002F07002914204D90B
:1016F000026822F070020A430260207880070AD54F
:10170000E068296801F00F01884204D9296821F0B6
:101710000F01014329602078C0073ED05B49A268D1
:101720002868183920F47060104328606068022827
:1017300018D0032819D00968012819D049070029B1
:101740004ADADFF848A1AAF1080A00E044E0DAF832
:10175000002022F007020243CAF80020FFF756FDDE
:10176000814612E009688903E9E709688901E6E72B
:10177000C905E4E7FFF74AFDA0EB090141F2883013
:10178000814202D90320BDE8F09F6168DAF80000C9
:1017900000F03800B0EBC10FECD1207880070AD5FB
:1017A000E068296801F00F01884204D2296821F01D
:1017B0000F0101432960D8F80010404601F00F01E5
:1017C000B9420BD9016821F00F013943016000686B
:1017D00000F00F00B84201D00120D4E72078400784
:1017E0000AD52069296801F07001884204D229686D
:1017F00021F0700101432960207800070AD5606953
:10180000316801F07001884204D2316821F0700122
:10181000014331602078C0060AD5A069316801F41F
:10182000E061884204D2316821F4E0610143316013
:10183000207880060CD5E1695846DBF8002002F0DC
:101840007002914204D2026822F070020A430260E0
:1018500000F06CF80E492A682B68C2F3032203F0EB
:101860000F038A5CC95C02F01F0201F01F01D04027
:10187000084A20FA01F1116007490860074800682A
:10188000BDE8F05FFFF7FEBC00200052184402588C
:10189000E44D0008100000240C0000240400002483
:1018A00030B500F043F80B4A0B490C4B156814682F
:1018B000C5F3032204F00F048A5C095D02F01F02E5
:1018C00001F01F01D040064A20FA01F119601060B2
:1018D000084630BD18440258E44D000810000024AA
:1018E0000C00002400B5FFF7DBFF05490968054A35
:1018F000C1F30211515C01F01F01C84000BD00009E
:101900001C440258E44D000800B5FFF7C9FF054923
:101910000968054AC1F30221515C01F01F01C8406A
:1019200000BD00001C440258E44D0008454970B554
:1019300045480968434B103B11F0380208D00111AB
:10194000082A03D0102A0BD0182A0BD0084670BDE5
:1019500019688906FBD51968C1F3C101C84070BD7B
:101960003A4870BD3749374D18310C1D24350A6887
:10197000096826682D6802F0030406F00102C1F32D
:101980000511C5F3CC0515FB02F200EE102AB8EEE6
:10199000400AE9B32F4ADFED2E0AB7EE001A6CB108
:1019A000DFED2D1A012C01D0022C43D002EE101ACB
:1019B0001068F8EE422A81EEA22A1EE01C68A406F6
:1019C00011D51B6801EE901A1168C3F3C103F8EE3C
:1019D000612AD84001EE900AC1F30800F8EE611ABE
:1019E00081EEA22A0BE001EE901ADFED1C2A00BF67
:1019F000F8EE611A106882EEA12AC0F3080001EE29
:101A0000900AF8EE611A40EE201A31EE810A00E0E9
:101A100015E022EE000A1068C0F34620401C00EEDC
:101A2000900AF8EE600A80EE201ABCEEC10A10EEB1
:101A3000100A70BD01EE901ADFED092AD8E70020E8
:101A400070BD0000104402580090D00340787D0122
:101A500000000039304402580024744A0024744CB9
:101A600020BCBE4B2DE9F05F04007DD0FF4F2078F5
:101A7000FE4D1837DFF8F483103DC00748D0D8F882
:101A80000000396800F03800102815D0182803D15C
:101A900001F0030002280FD06068B0F5803F12D03B
:101AA00010B1B0F5A02F18D0286820F4803028603D
:101AB000286820F4802009E02868800328D5606821
:101AC0000028D2D024E0286840F480302860606884
:101AD00088B1FFF79BFB064609E0286840F48020A8
:101AE0002860F0E7FFF792FB801B64287ED8286807
:101AF0008003F7D50CE0FFF789FB064605E000BF41
:101B0000FFF784FB801B6428F0D828688003F7D493
:101B10002078800756D5D8F80000DFF85093396850
:101B200010F03800A9F10C090ED0182801D188074F
:101B30000AD0E068A8B3296821F01901014329609F
:101B4000FFF764FB064628E02868400702D5E068F6
:101B500000288AD0E168286820F01900084328602E
:101B6000FFF754FB064606E0D2E000BFFFF74EFB4E
:101B7000801B0228BAD828684007F7D5217CD9F8FD
:101B8000002022F0FE4242EA0161C9F8001019E08B
:101B9000FFF73CFB801B0228A8D828684007F7D530
:101BA000ECE7FFE7286820F001002860FFF72EFB34
:101BB000064604E0FFF72AFB801B022896D8286817
:101BC0004007F7D42078C00646D5D8F80000DFF8E3
:101BD0009C92396800F03800A9F10409082812D055
:101BE000182805D101F00300012800E0CEE00AD05A
:101BF000E0690028286820D040F080002860FFF7C6
:101C000005FB064615E02868C00502D5E069802876
:101C10007ED194F82010D9F8002022F07C5242EABC
:101C20000161C9F8001017E0FFF7F0FA801B0228E5
:101C3000A0D82868C005F7D5EBE720F08000286021
:101C4000FFF7E4FA064604E0FFF7E0FA801B0228FB
:101C500090D82868C005F7D42078000729D5834894
:101C60006169643000298146016811D041F00101A9
:101C70000160FFF7CBFA064605E000BFFFF7C6FAA2
:101C8000801B022888D8D9F800008007F6D510E01C
:101C900021F001010160FFF7B9FA064605E000BF37
:101CA000FFF7B4FA801B022870D8D9F8000080072B
:101CB000F6D42078800623D5A0690028286810D0A3
:101CC00040F480502860FFF7A1FA064605E000BF07
:101CD000FFF79CFA801B022858D828688004F7D5A3
:101CE0000EE020F480502860FFF790FA064604E0EA
:101CF000FFF78CFA801B022848D828688004F7D4A4
:101D00002078400751D5DFF86891D9F8001000E03D
:101D100015E141F48071C9F80010FFF777FA064623
:101D200005E000BFFFF772FA801B64282ED8D9F8AF
:101D30000000C005F6D54D4EA068603601280AD0D7
:101D400008B1052813D0306820F0010030603068F9
:101D500020F0040002E0306840F001003060A0682C
:101D600041F2883A98B1FFF751FA81460AE03068AB
:101D700040F004003060EEE7FFF748FAA0EB0901FD
:101D8000514503D830688007F6D50EE072E0FFF7C2
:101D90003DFA814606E000BFFFF738FAA0EB0901E3
:101DA000514567D830688007F6D4606A00287CD037
:101DB000DFF8B8A0D8F800100AF1200A4FF6F87B37
:101DC0000AF10408C1F3C2010329AAF104096DD084
:101DD0000228286820F08070286003D0FFF716FAE8
:101DE000044681E0FFF712FA064604E0FFF70EFA18
:101DF000801B022875D828688001F7D4E26A40F277
:101E0000F331386854F8283F884340EA02101843F9
:101E10003860217B4FF4FE0C22894FF0FE47208A68
:101E20004902267D521E401EA1F5007189B2C2F3FF
:101E300008021143761E0CEA00400143484607EAB7
:101E400006621143CAF80010D9F8001021F0010110
:101E5000C9F80010D8F80030266A23EA0B0343EAD9
:101E6000C601C8F80010D9F8001004E01044025868
:101E70000048025835E0A26921F00C011143C9F86D
:101E800000100168E26921F002011143016001685C
:101E900041F480310160016841F400310160016862
:101EA00041F480210160016801E06CE020E041F034
:101EB00001010160286840F080702860FFF7A6F9F2
:101EC000044604E0FFF7A2F9001B022809D828689D
:101ED0008001F7D557E000BFFFF798F9001B0228F3
:101EE00002D90320BDE8F09F28688001F4D44AE0BD
:101EF00039680128DAF8000021D0A26A01F0030352
:101F000093421CD1E26AC1F305118A4217D1216BB9
:101F1000C0F30802491E8A4211D1616BC0F3462208
:101F2000491E91420BD1A16BC0F30642491E91425A
:101F300005D1E16BC0F30660491E814201D001204A
:101F4000D0E7A16C4646D8F80000C0F3CC0081422F
:101F500019D0D9F800004D4620F00100C9F8000062
:101F6000FFF754F94FEA0007FFF750F9B842FBD0EA
:101F7000A26C306820EA0B0040EAC200306028689A
:101F800040F0010028600020ACE7401EB0F1807FE7
:101F900010B501D3012010BD4FF0E02460610F2186
:101FA000601700F00DFD0020A0610721216110BD28
:101FB00030B590F88410012918D0012280F88420CF
:101FC0002421C0F888100022202401680B680D68C5
:101FD00023F0005325F001050D60426601680B6097
:101FE000C0F8884080F88420104630BD022030BD03
:101FF00070B5044690F8840001281DD0012284F8B1
:1020000084202420C4F8880020680568026822F033
:10201000010202602068826822F060620A438260E6
:10202000204600F069F92268202100201560C4F8DC
:10203000881084F8840070BD022070BD70B504461D
:1020400090F8840001281DD0012284F884202420E7
:10205000C4F8880020680568026822F00102026066
:102060002068826822F060420A438260204600F0C5
:1020700043F92268202100201560C4F8881084F8F4
:10208000840070BD022070BD10B5040003D0D4F8E8
:10209000880010B107E0012010BD002084F8840002
:1020A000204600F027F82420C4F888002068016842
:1020B00021F001010160204600F024FA0128EBD054
:1020C000A06A10B1204600F039F92068416821F477
:1020D000904141602068816821F02A018160206878
:1020E000016841F0010101602046BDE8104000F0A8
:1020F00089B9000010B586B0044614216846FEF781
:10210000EDFC1A49206888422ED11948016841F037
:1021100010010160006800F01000059014481038AC
:10212000016841F001010160016801F001010591C0
:10213000016841F00101016000680221012200F004
:1021400001000590032307244FF400708DE81F0061
:10215000084C69462046FEF74BFF4FF48060694605
:1021600000902046FEF744FF06B010BD001001406D
:10217000F0440258000002582DE9F8430446D0F814
:102180008800984616460D46202802D00220BDE859
:10219000F883A5B19EB10021C4F890102120C4F8A5
:1021A00088001834FFF732F8814654F8100CA687DF
:1021B000E6872027183CB0F5805F02D003E00120BD
:1021C000E5E7206910B12E46002510E000260EE05C
:1021D0008021204600F084FBC0B9DEB116F8010B67
:1021E00021688862B4F85600401EA4F85600B4F87E
:1021F00056004B464FF00002CDF800800028E7D192
:102200004FF04001204600F06BFB48B1C4F88870E5
:102210000320BCE735F8020B2168C0F30800E0E7B3
:10222000C4F888700020B2E7FEE7FEE7FEE77047DB
:102230007047FEF7F1BF00002748F0B5274A016854
:1022400041F470010160106800F00F00072804D20B
:10225000106820F00F00C01D106021490020204CA4
:1022600010340B681F4D43F001030B6020600B68B6
:102270002B400B60136803F00F03072B04D913687E
:1022800023F00F03DB1D1360154C174A1834174B4E
:10229000261D371D2060124C154D28343060261D38
:1022A0003860371D23603B1D35601C1D3A60251DBD
:1022B0002E1D1860331D22602860326018600A6885
:1022C00043F2D204064B0B4D22F4802260330A60A5
:1022D00018602C60F0BD000088ED00E00020005286
:1022E000004402587FEDF6EA80020101000202027A
:1022F0000000FF010040005230B5416EB9B10168E5
:102300000D4B03F108048A688968C2F34262490FE1
:102310005D5C615C2D01B5FBF1F1A0F86A10995C80
:10232000A25C0901B1FBF2F1A0F8681030BD0121F7
:10233000A0F86A10F8E70000D44D000890F82810C3
:10234000C90706D00168C36A4A6822F400321A43FA
:102350004A6090F82810890706D50168036B4A681F
:1023600022F480321A434A6090F82810490706D5B3
:102370000168436B4A6822F480221A434A6090F84D
:102380002810090706D50168836B4A6822F40042C9
:102390001A434A6090F82810C90606D50168C36B35
:1023A0008A6822F480521A438A6090F828108906BD
:1023B00006D50168036C8A6822F400521A438A60C9
:1023C00090F82810490611D50168436C4A6822F438
:1023D00080121A434A60416CB1F5801F06D1016832
:1023E000836C4A6822F4C0021A434A6090F82810AD
:1023F000090606D50168C26C486820F40020104325
:10240000486070472DE9F84300250446C0F8905015
:10241000FEF7FCFE8046206820266FF07E470068AD
:10242000000713D50022434631042046009700F0F0
:1024300057FA58B1216851E8000F20F0800041E8B8
:102440000002002AF6D1C4F8886021E02068006804
:10245000400722D5002243464FF4800120460097D2
:1024600000F03EFAC8B1206850E8001F21F49071D6
:1024700040E80012002AF6D12068083050E8001F1A
:1024800021F0010140E80012002AF5D1C4F88C6067
:10249000032084F88450BDE8F883C4F88860C4F849
:1024A0008C60E5662567002084F88450F3E700001F
:1024B00010B5026852E8001F21F4907142E8001341
:1024C000002BF6D10E4B0268083252E8001F19406B
:1024D00042E80014002CF6D1C16E012908D102682F
:1024E00052E8001F21F0100142E80013002BF6D142
:1024F00000212022C0F88C20C166416710BD000079
:10250000FEFFFFEF2DE9F04304468068E24E87B0FE
:10251000E24B2168D4E90427D4F81CC010430A68B0
:10252000002547EA0C073843324002430A6020681E
:10253000E268416821F44051114341602268A16979
:102540009A4201D0206A01439668DFF854C3D54F00
:10255000D54806EA0C060E4396602168666ACA6A88
:1025600022F00F023243CA622268BA420ED10068DA
:1025700000F0380018286FD07ADCB8B308286CD087
:1025800010286BD18BE0282868D18EE0C7498A4299
:1025900009D1006800F0070006285FD2DFE800F0EC
:1025A000507D7F818385C2498A4209D1006800F04D
:1025B000070006287BD2DFE800F04370727476785B
:1025C000BC498A4209D1006800F0070006286ED293
:1025D000DFE800F036636567696BB7498A420BD163
:1025E000006800F00700062861D200E043E0DFE861
:1025F00000F0275456585A5CB0498A4206D1006808
:1026000000F0380018284CD0B7DD31E0AC498A42E0
:1026100009D1006800F00700062848D2DFE800F082
:10262000103D3F414345A7498A420BD1006800F065
:10263000070006283BD2DFE800F00330323436389A
:10264000002035E0A0498A4209D1006800F0380036
:10265000182826D091DD0BE023E01EE027E09B49FF
:102660008A420AD1006800F03800182819D084DDA9
:10267000202888D11CE001201AE09A4217D18A480C
:10268000001D006800F00700062810D2DFE800F007
:10269000030507090B0D02200AE0042008E00820CA
:1026A00006E0102004E0202002E0402000E080202E
:1026B0008749DFF820829A42874A4FF400434FEA65
:1026C00021174FF000064ED110281AD006DC022840
:1026D00009D004280BD008287ED10DE020283ED058
:1026E000402879D13DE0FEF757FE014610E06846EC
:1026F000FEF764FE01990BE003A8FEF701FF0499C1
:1027000006E01068800605D51068C0F3C100C1401E
:10271000002970D0606A676838F8102007EB47031B
:10272000B1FBF2F0834257D8B0EB073F54D80023F7
:1027300008461946FEF77AF902467808130E120287
:1027400043EA012110183A4671410023FEF76EF961
:10275000624AA0F5407191423ED821688FE0394627
:10276000D8E71946D6E7D4F81CC04FF6EF799C4558
:1027700046D1082819D005DC58B101280CD004280E
:1027800075D10DE0102815D0202835D040286ED105
:1027900034E0FFF7A7F801E0FFF7B6F8014610E0D4
:1027A0006846FEF70BFE01990BE003A8FEF7A8FEB2
:1027B000049906E01068800604D51068C0F3C100D3
:1027C000C140C1B1636A606838F81330B1FBF3F1FE
:1027D000490001EB500100E049E0B1FBF0F0A0F14D
:1027E0001001494543D84FF6F0732168C0F3420207
:1027F0001840104343E043E03946E3E71946E1E778
:10280000082819D005DC58B101280CD004282ED195
:102810000DE0102815D020282BD0402827D12AE001
:10282000FFF760F801E0FFF76FF8014610E0684637
:10283000FEF7C4FD01990BE003A8FEF761FE0499C1
:1028400006E01068800604D51068C0F3C100C140DE
:10285000B1B1636A606838F81330B1FBF3F101EB92
:102860005001B1FBF0F0A0F11001494505D9012557
:1028700006E03946EDE71946EBE7216880B2C8600B
:102880000120A4F86A00A4F8680028466667A667D5
:1028900007B0BDE8F0830000F369FFCF000C0058DB
:1028A000FFF4FF110010014054440258004400405E
:1028B00000480040004C004000500040001401401F
:1028C00000780040007C004000180140001C0140DE
:1028D0000090D003BC4D000800440258FFFC0F00DC
:1028E0002DE9F047994617460E460446089D4FF0DD
:1028F00000082FE0681C2DD0FEF788FCA0EB090033
:10290000A84214D89DB120680168490722D5C16941
:10291000C94309070DD4082505622046FFF7C8FD05
:10292000C4F89050012084F88480BDE8F08703202B
:10293000FBE7C069C04300050CD421684FF4006078
:1029400008622046FFF7B4FD2021C4F8901084F8F7
:102950008480ECE72068C06936EA000004D00020DB
:10296000B842C7D00020E0E70120F9E7FEE7000009
:102970000FB4054B10B503A9044A029800F068FC97
:1029800010BC5DF814FB0000993900081400002405
:1029900003B401984100009850EAC12018BF0420F8
:1029A0004A0D18BF40F0010040F2FF72B2EB515FD8
:1029B00008BF40F00200012808BF052002B07047A0
:1029C000090700284FEA116104DB00F1E02080F8DC
:1029D0000014704700F00F0000F1E02080F8141D93
:1029E000704700000000000010B529499FED261B2C
:1029F0002DED020B84B0059820F000408842D8BF2E
:102A00009DED040B2DDD2349884209D1049840B97E
:102A10004FF0010000F064FB00F03AFB06B010BD7F
:102A200005DB9DED040B30EE000B06B010BD6846D3
:102A30009DED040B00F0A8F810F0030004BF9DED1D
:102A4000021B9DED000B0CD001280ED09DED021B4A
:102A50009DED000B022810D0012000F0C5FA06B051
:102A600010BD00F019FA06B010BD9DED021B9DEDE2
:102A7000000B012000F0B8FA01E000F00DFAB1EE11
:102A8000400B06B010BD0000000000000000000078
:102A9000FB21E93F0000F07F2DED020B9FED340B91
:102AA000DDE90010C0F30A529FED331BA2F2FF32A2
:102AB000142A2DDA9DED002B9FED2D0B32EE000B2D
:102AC000002A10DAB4EEC01BF1EE10FA49D2002849
:102AD000A4BF0020014644DA20F000420A4318BF98
:102AE00027483ED012E0274BD34000EA030C5CEAB3
:102AF000010C17D0B4EEC01BF1EE10FA31D2002851
:102B000003DA4FF48011D14008449843002128E0B3
:102B1000332A07DCA2F114034FF0FF3C2CFA03F335
:102B2000194203D19DED000B02B070479DED002BC3
:102B300030EE420BB4EEC01BF1EE10FA11D20028B9
:102B40000EDA142A08BF401C0AD0C2F134024FF03A
:102B5000010C0CFA02F20A448A4238BF401C1146AA
:102B60009943CDE900109DED000B02B070470000C5
:102B70009C7500883CE4377E0000000000000000E7
:102B80000000F0BFFFFF0F002DE9F14F04462DEDCF
:102B9000020B2DED048B94B09FED9D0B80ED020B8D
:102BA000199E9D4826F0004585420ADC9DED180BD4
:102BB000002084ED000B14B0BDEC048B03B0BDE825
:102BC000F08F96489FED969B9FED978BA84225DD51
:102BD00097489FED991B9FED9A2B9DED180B002EAA
:102BE0000DDD30EE490B854212BF30EE480B30EE62
:102BF000410B30EE420B84ED000B0120DBE730EEA1
:102C0000090B854212BF30EE080B30EE010B30EE9F
:102C1000020B84ED000B4FF0FF30CCE78A48A8424E
:102C200053DB9DED180B51EC100B00F0A8FE41ECAE
:102C3000100BB0EE401B9FED862B9FED870B01EE36
:102C4000020BFDEEC00B10EE903A00EE903AB8EE9B
:102C5000E02BB0EE410B02EE490B22EE081BDFF831
:102C600000C2290D0120FC4430EE411B84ED001B05
:102C700003281DD011EE902A00EB4015113DC2F340
:102C80000A528A1A954213DAB0EE403B0CEB00125E
:102C900092ED000B20EE021B33EE410B33EE403B76
:102CA00033EE411B92ED023B12EE031B401CDBE7AF
:102CB000002EA8BF1846BFF67EAF94ED000BB1EE14
:102CC000400B84ED000B584275E7C6F3130040F447
:102CD000801EC6F30A50A0F2F530471100F01F0520
:102CE000C5F12000DDF860B0139000200890099035
:102CF00005200DF1080C5B49002D07EB000279441B
:102D000008BF51F8221009D051F8223001EB82019E
:102D1000AB404A68139922FA01F11943A1FB0E2630
:102D2000A1FB0B131A449A4234BF0123002303EB87
:102D300006080CEB8003D3E901A60E448E4234BF93
:102D40000121002192448A4411B1924502D903E045
:102D5000924501D2012100E00021C3E901A64144CE
:102D60004CF82010011EA0F10100C4DC04989DED78
:102D7000050A00F10050810F0498DDED060A80007D
:102D80009DED072A01EE100AB8EEC13BB8EE401BDC
:102D90009FED354B21EE041BB8EE600B9FED344BDD
:102DA00020EE040BB8EE422B9FED334B22EE042BAA
:102DB00030EE024B34EE014B34EE034B8DED004B05
:102DC000002000909DED004B34EE433B33EE411B61
:102DD00031EE400B32EE401B9DED000B9FED282B9A
:102DE00020EE020B9FED282B01EE020B9DED001B48
:102DF0009FED272B01EE020B199810F0004F1CBF1E
:102E00004942B1EE400B84ED000B0846D3E60000CA
:102E10000000000000000000FB21E93F7CD90240D7
:102E200000004054FB21F93F3163621A61B4D03D88
:102E3000FB21F93F000000000000601A61B4D03DA2
:102E40007370032E8A19A33BFB2139410000000057
:102E500083C8C96D305FE43F000000000000E03F20
:102E6000BEA9000056A90000000000000000103EAE
:102E7000000000000000103C000000000000103ABC
:102E80003326A611460B113C182D4454FB21F93D65
:102E900000000054FB21F93D10B52DED040B2DED84
:102EA000068B82B0B0EE41AB09989FED299B20F0D4
:102EB0000044B4F1795F0FDA9DED080BBDEEC00B55
:102EC00010EE100A002801BFB0EE490B02B0BDECB5
:102ED000068B04B008BF10BD9DED080B20EE008BE3
:102EE000B0EE480B1C480621784400F045F820EE6F
:102EF000080B28EE000B9DED081B01EE4A0B9FED21
:102F0000181B28EE011B18488442BCBF31EE400B51
:102F100039EE400B16DB1548A042BCBF9FED142BC9
:102F20008DED002B06DBA4F5001001900020009031
:102F30009DED002B31EE421B39EE422B31EE400B62
:102F400032EE400B02B0BDEC068B04B010BD0000A9
:102F5000000000000000F03F0CA70000000000008F
:102F6000000000000000E03F3333D33F0000E93FA2
:102F7000000000000000D23FB0EE401B491E00EBF5
:102F8000C10292ED000B31F006020DD0491E00EB9C
:102F9000C10292ED002BB0EE403BB0EE420B03EECF
:102FA000010B31F00602F1D1022914D004290AD014
:102FB000062918BF704790ED0A2B00EE012B90ED0B
:102FC000080B02EE010B90ED062B00EE012B90EDAD
:102FD000040B02EE010B90ED022B00EE012B90EDA5
:102FE000000B02EE010B704731B504462DED040BCA
:102FF0002DED068BB0EE419B07989DED060B20F062
:103000000040B0F1795F0DDA51EC100BFFF7C0FC16
:10301000042808BF00F048F89DED060BBDEC068BB8
:1030200005B030BD20EE008B28EE00ABB0EE480BB3
:10303000114805217844FFF79FFF9FED111B8CB1CC
:103040009FED112B29EE022B0AEE402B18EE029B6E
:103050000AEE419B9DED060B30EE490BBDEC068B55
:1030600005B030BD08EE001B9DED060B0AEE010B0E
:10307000BDEC068B05B030BDB8A600000000000016
:10308000495555555555C5BF000000000000E03FAB
:103090009FED031B81EE010B704700000000000054
:1030A00000000000000000009FED030B20EE000B6D
:1030B0007047000000000000000000000000001049
:1030C00002E008C8121F08C1002AFAD170477047F1
:1030D000002001E001C1121F002AFBD1704700004F
:1030E0000149086070470000200000242DE9FF5FBF
:1030F000DDE90220010DDDF838B0024318D044F6B6
:103100001050A1F2FF3141430D140F98012820D037
:10311000A5EB0B00401C5FEA000A4FF00004474E8D
:10312000DFF81C91A046504616D5CAF1000728E0EA
:103130000F98012443A2012808D0002100980F9B7A
:10314000C0E90021C0E90243BDE8FF9F6FEA0B011F
:10315000F4E7CBF10000DEE7074612E0F80707D0FE
:103160002246334640464946FDF7ADFD8046894636
:103170002246334610461946FDF7A5FD04460E4685
:103180007F10002FEAD1DDE90201BAF1000F4246BB
:103190004B4602DAFDF797FD01E0FDF706FE044617
:1031A0000E460022284BFDF787FE03D84FF0FF3074
:1031B000014607E00022254B20463146FDF7DCFCA6
:1031C000FDF762FE102409E0002C0ADB0A2200232E
:1031D000FDF72CFC019B30321A55641E50EA0102A7
:1031E000F2D1641C019AC4F1110314440F9A012A0C
:1031F00003D0012208430DD10AE0084304D0002087
:103200004FF0110B0F9080E7A3EB0B056D1E0DE047
:103210005B4504DD4FF0000205F1010504E003DA2F
:103220004FF00002A5F10105002AECD000980F999B
:10323000C0E90231C0E9004586E7000000002440F3
:103240000000F03F300000000000F0430000E03FCD
:103250002DE9FF4F95B09B468946064600250FE2B3
:10326000252877D100242746F84A0121059400E05B
:10327000044316F8013F203B01FA03F01042F7D156
:1032800030782A2811D06FF02F033078A0F1300267
:10329000092A16D8059A44F0020402EB820203EBD5
:1032A00042021044761C0590EFE759F8042B059272
:1032B000002A03DA504244F40054059044F002041A
:1032C000761C30782E2816D116F8010F44F004042D
:1032D0002A280DD06FF02F023078A0F13003092B8F
:1032E00009D807EB870302EB4303C718761CF3E703
:1032F00059F8047B761C30786C280FD006DC4C28FB
:1033000017D068280DD06A2814D104E0742810D092
:103310007A280FD10DE044F400140AE044F480143C
:1033200001E044F440147278824202D104F5801422
:10333000761C761C307866280BD013DC582877D0A2
:1033400009DC002875D04528F6D04628F4D0472857
:103350001AD19DE118E0632835D0642879D065281A
:1033600012D195E1702873D008DC6728F1D0692864
:103370006FD06E280DD06F2806D1B5E073282CD001
:10338000752875D0782874D05A46179990476D1CC7
:1033900075E1C4F30250022809D003280DD0D9F8F2
:1033A000001004280DD00D6009F1040967E1D9F877
:1033B0000010EA17C1E90052F6E7D9F800100D80B5
:1033C000F2E70D70F0E719F8041B8DF800100020EB
:1033D0008DF80100EA46012003E059F804AB4FF0F4
:1033E000FF3061074FF0000102D40DE008F1010148
:1033F0008846B9420FDA8045F8DB1AF80810002930
:10340000F4D108E008F1010188468142FADB1AF89C
:1034100008100029F6D105985B46A0EB0807214665
:103420003846179A00F094FA284400EB080507E0A4
:103430004DE029E10DE01AF8010B5A461799904723
:10344000B8F10108F7D25B4621463846179A13E1D6
:1034500042E00A220092C4F302524FF0000A022A0C
:1034600008D059F804CB032A4FEAEC710AD00DE0DA
:1034700029E02AE009F1070121F00702F2E802C180
:10348000914609E00FFA8CFC4FEAEC71042A03D153
:103490004FFA8CFC4FEAEC71002907DA0A4600214A
:1034A000DCF1000C61EB02012D2202E0220504D5C3
:1034B0002B228DF80420012203E0E20701D0202214
:1034C000F7E7904659E00A2102E010220DE01021B2
:1034D0004FF0000A00910BE010224FF0000A44F078
:1034E00004040827009203E008224FF0000A00922B
:1034F000C4F30252022A05D059F804CB0021032A52
:1035000008D009E009F1070121F00702F2E802C141
:10351000914605E01FFA8CFC042A01D10CF0FF0C47
:103520004FF00008220728D5702806D0009B83F0B2
:10353000100353EA0A0305D00EE040228DF8042060
:10354000012208E05CEA010206D030228DF8042056
:103550008DF8050002229046009B83F0080353EA91
:103560000A030AD15CEA010201D1620705D53022C3
:103570008DF804204FF001087F1E582804D034A095
:1035800003900EA802900DE036A0F9E7534660467E
:10359000009AFDF74BFA84460398825C0298401E1D
:1035A000029002705CEA0100F0D1029806A9081AA4
:1035B00000F1200A600702D524F4803400E00127DE
:1035C000574502DDA7EB0A0000E0002000EB0A01EE
:1035D000009005984144401A0590E00306D45B46EC
:1035E0002146179A059800F0B3F90544002706E034
:1035F00001A85A46C05D179990476D1C7F1C47452E
:10360000F6DBE0030CD55B462146179A059800F0DF
:103610009FF9054404E030205A46179990476D1CE5
:103620000099481E00900029F5DC08E002980299F4
:103630005A460078491C0291179990476D1CBAF1BF
:103640000001AAF1010AF1DC65E10000092801008E
:103650003031323334353637383961626364656608
:1036600000000000303132333435363738394142CA
:10367000434445460000000000F058F90544761C1C
:10368000307800287FF4ECAD19B02846BDE8F08F03
:10369000620700D4062709F1070222F0070CFCE8B4
:1036A0000223E14603F000485FEA080C02D00FF263
:1036B000702C0DE05FEA045C02D50FF2682C07E085
:1036C0005FEAC47C02D00FF2602C01E0AFF2700C14
:1036D0004FF0FF3823F00043CDF850C065280CD0E0
:1036E00006DC452809D046281DD047283DD13DE0BD
:1036F000662818D067287ED138E00021112F01DB21
:10370000112000E0781CCDE9000106A90EA8FFF702
:10371000EDFCDDE90F010E9A03910021009207F103
:10372000010A04914DE04FF000400097CDE90110EF
:1037300006A90EA8FFF7DAFCDDE90F0203920E9B43
:1037400011990022DDF80CA00093049211B9791CA4
:1037500000EB010AB7EB0A0004D4C0F1FF3007F117
:10376000010A0490AAEB0700019044E0012F00DA5F
:1037700001270021112F01DD112000E03846CDE99D
:10378000000106A90EA8FFF7B1FCDDE90F010E9AB2
:103790000391002104910092BA4621070CD40399A9
:1037A000514500DA8A46BAF1010F05DD009AAAF107
:1037B0000101515C302908D0B84202DA10F1040F3F
:1037C00006DA0121CDE9011015E0AAF10101E9E7CE
:1037D000002805DC049901440491AAEB000102E0F1
:1037E000411C514500DD8A460499401A401C019055
:1037F0004FF000400290200704D40198504501DBAF
:10380000CDF8048000208DF84F0002980DF14F078D
:10381000B0F1004F25D02B200E9002984FF00208F7
:1038200000280CDA404202902D200E9007E00A2179
:103830000298FDF76CF93031029007F8011DB8F1DC
:103840000001A8F10108F2DC02980028EFD1791EEE
:103850000E980870307800F0200040F0450007F81E
:10386000020D12A8C01B00F107081498007800B1DF
:10387000012000EB0A01019801EBE0710598414439
:10388000401A401E0590E00306D45B462146179A75
:10389000059800F05DF805441498007818B15A4670
:1038A000179990476D1CE00324D55B462146179A73
:1038B000059800F04DF805441CE00498002807DB4B
:1038C000DDE90301884203DD0098405C179901E0BF
:1038D000179930205A469047049805F10105401C7D
:1038E00004900198401E019004D12E205A46179949
:1038F00090476D1CBAF10001AAF1010ADDDC05E078
:1039000017F8010B5A46179990476D1CB8F1000142
:10391000A8F10108F4DC5B462146179A0598ABE64E
:103920002D0000002B000000200000002DE9F041D8
:10393000044600251E461746880404D405E039468F
:103940002020B0476D1C641EF9D52846BDE8F081E3
:103950002DE9F041044600251E469046C80301D5D6
:10396000302700E02027880404D505E0414638468A
:10397000B0476D1C641EF9D52846BDE8F08182B0C1
:10398000CDE9000121F0004001909DED000B02B057
:1039900051EC100B7047000013B50448642301225A
:1039A0006946FEF7E9FB00981CBD000024000024D6
:1039B00010B5002821D0114B0022001F196803E028
:1039C000814203D80A4649680029F9D152B11368E7
:1039D000841A9C4204D1006818441060104602E02A
:1039E000506000E0186039B102680B1A934203D1AD
:1039F0000B681A4402604968416010BD1800002439
:103A00002DE9FF5F4FF000049346012B0646254643
:103A1000204604D0022B12D0032B22D130E096EDA9
:103A2000060A96ED031A0122FCEEC00ABCEEC10A9A
:103A3000114610EE900A10EE105AC4B20EE096ED48
:103A40000A0A01220221BCEEC00A10EE100AC4B21A
:103A5000304600F0F9F9012205460221304600F017
:103A6000BAFA820001215043FDF743F85FEA0009EA
:103A700046D00023281B9A46401C00FB05F83CE07A
:103A800096ED0E0A01220321BCEEC00A10EE100AC8
:103A9000C4B2304600F0D8F9012205460321DDE723
:103AA000B3FBF5F219469FED1A0A05FB121282428A
:103AB00022D2002214FB04F616E000BF0BEB820CAE
:103AC000019F521C9CED001AB2FBF4FC07EB81072E
:103AD000D7ED000A00EE810A04FB1C271FB9A242A1
:103AE00001D32944091B491C9642E7D809EB8A02F5
:103AF0000AF1010A82ED000A5B1C9845D0D802E069
:103B000004A0FEF735FF04B04846BDE8F09F000072
:103B1000000000004D616C6C6F63206F75747075F0
:103B2000745F6368616E6E656C5F696D6167652067
:103B30006661696C210D0A002DE9F04716468A4638
:103B4000002405460222314600F07EF9022280461A
:103B50003146284600F03FFA012E04D0022E05D04F
:103B6000032E0AD117E095ED070A01E095ED0B0A47
:103B7000BCEEC00A10EE101ACCB2B8FBF4F1820011
:103B800050438DB20121FCF7B4FF5FEA000939D040
:103B90000026324633E095ED0F0AE9E700232BE0DB
:103BA00002FB04F09FED1A0A14FB04F700FB08F077
:103BB00003FB0401002017E00AEB810CDCED000A96
:103BC000F4EEC00AF1EE10FA01DDB0EE600A401C1E
:103BD000B0FBF4FC04FB1C0CBCF1000F03D1A042B1
:103BE00001D34144091B491C8742E5D809EB8600F3
:103BF0005B1C761C80ED000AAB42D1D3521CAA425A
:103C0000CCD302E003A0FEF7B3FE4846BDE8F08740
:103C1000000000004D616C6C6F63206F75747075EF
:103C2000745F706F6F6C65645F6368616E6E656C06
:103C30005F696D616765206661696C210D0A00002E
:103C400070B59CB04C216846FCF748FF202113A8B2
:103C5000FCF744FF0220FDF775FB1B48016821F4C7
:103C6000404101600168002401F440411B9101685A
:103C7000C9438904FBD4022009900121C2030A230D
:103C8000DC25CDE900120AAA042682E82900CDE944
:103C90000D10CDE910640F9068461294FDF7E2FE16
:103CA00040201A9008230501CDE9163013ABCDE969
:103CB00018053F21032283E8160013A81146FDF7DB
:103CC000C1FC1CB070BD0000184802582DE9F74F28
:103CD00084B004464FF00006B146374606980128E6
:103CE00004D0022809D003281DD139E094ED050A3B
:103CF000D4ED040A94ED061A05E094ED090AD4ED1A
:103D0000080A94ED0A1ABCEEC00AFCEEE00ABCEE0A
:103D1000C11A10EE102A10EE900A11EE101A96B287
:103D20001FFA80F9CFB20699204600F0D3FD06991C
:103D30000290204600F002FC0190012206992046E4
:103D400000F049F9B2008046012102FB08F202FBB3
:103D500008F0FCF7CEFE5FEA000B56D000254BE0E2
:103D600094ED0D0AD4ED0C0A94ED0E1ACBE700BFCA
:103D70004FEA89000121784378438246FCF7B9FE77
:103D80000090524605FB0AF020F00301029801441E
:103D90000098FCF77CFE009A2046DDE9051300F050
:103DA000B3F98246019808FB08F100EB8502002078
:103DB0000BE000BF0AEB8003D2ED000A93ED000A8E
:103DC000401C30EE200A83ED000A8142F2D84FEA0F
:103DD000880202FB08F205FB02F020F0030101EB70
:103DE0000B005146FCF753FE0098FFF7E1FD5046EB
:103DF000FFF7DEFD6D1CADB2B542B9D30298FFF7F7
:103E0000D7FD0198FFF7D4FD02E005A0FEF7B0FD55
:103E10000598FFF7CDFD07B05846BDE8F08F0000CC
:103E200043616C6C6F63206F75747075745F666945
:103E30006C746572735F696D616765732066616933
:103E40006C210D0A000000002DE9F0474FF0000939
:103E50008846012A04462DED048BB7EE008A4E46B3
:103E600090ED030ABCEEC00A07D010EE100A08F16C
:103E70000101012580B2CFB2A5E010EE100AB8F121
:103E8000010F80B248D04FF0010545D994ED060AE4
:103E9000D4ED070ABCEEC09AFCEEE08A06E0012DE4
:103EA00004D0022D07D0032D0CD139E019EE102AD1
:103EB00018EE901A04E094ED0A0AD4ED0B0A33E0F0
:103EC000D7B2CEB2C01B00EE100AB8EEC00A30EE78
:103ED000080AB7EEC00AFEF7DFFDBCEEC00B10EE1D
:103EE000100A00EE106A80B2801BF8EE400A00EE65
:103EF000100AB8EEC00A80EE201A31EE080AB7EEBA
:103F0000C00AFEF7C9FDBCEEC00B6D1CEDB2454505
:103F100010EE100A80B2C2D3BDEC048BBDE8F0876E
:103F200094ED0E0AD4ED0F0ABCEEC00AFCEEE00AD6
:103F300010EE102A10EE901AC2E7012D04D0022DC7
:103F400007D0032D14D141E094ED060AD4ED070A01
:103F500003E094ED0A0AD4ED0B0ABCEEC00AFCEEB5
:103F6000E00A10EE102A10EE901A02F0FF09CEB20D
:103F7000A0EB090000EE100A4545B8EEC00A30EE8D
:103F8000080A15D0B7EEC00AFEF786FDBCEEC00BDE
:103F900010EE100A00EE106AC0B2801BF8EE400A64
:103FA00000EE100AB8EEC00A80EE201A31EE080AC0
:103FB000B7EEC00AFEF770FDBCEEC00B6D1CEDB293
:103FC00010EE100AC0B2AF42B7D8A5E794ED0E0AC2
:103FD000D4ED0F0AC1E72DE9F04780468946002657
:103FE00092462DED028B491C344690ED030A0125C3
:103FF000B7EE008ABCEEC00ACFB210EE100AC0B213
:104000007CE0012D04D0022D0FD0032D2AD11BE01E
:1040100098ED060AD8ED070ABCEEC00AFCEEE00AED
:1040200010EE102A10EE901A1AE098ED0A0AD8ED58
:104030000B0ABCEEC00AFCEEE00A10EE101A10EEFD
:10404000902ACEB2D4B20DE0D8ED0E0A98ED0F0A48
:10405000FCEEE00ABCEEC00A10EE902A10EE101A38
:10406000D6B2CCB24D451DD0801B00EE100AB8EE82
:10407000C00A30EE080AB7EEC00AFEF70DFDBCEE2E
:10408000C00B10EE100A00EE104AC0B2001BF8EE92
:10409000400A00EE100AB8EEC01A81EE200A30EE97
:1040A000080A20E0A0EB060000EE100ABAF1010FAA
:1040B000B8EEC00AF3D030EE080AB7EEC00AFEF739
:1040C000EBFCBCEEC00B10EE100A00EE104AC0B2C2
:1040D000001BF8EE400A00EE100AB8EEC00A80EEAF
:1040E000201A31EE080AB7EEC00AFEF7D5FCBCEE86
:1040F000C00B6D1CEDB210EE100AC0B2AF4280D8FA
:10410000BDEC028BBDE8F0872DE9FF4F4FF00007B3
:104110009B46012B054683B018463E4604D0022834
:1041200007D0032B13D123E095ED040AD5ED060A41
:1041300003E095ED080AD5ED0A0ABCEEC00AFCEED4
:10414000E00A10EE101A10EE900A8FB2C6B259466D
:1041500001222846FFF73FFF82008046012102FB33
:1041600008F0FCF7C6FC5FEA000958D0002453E0D1
:1041700095ED0C0AD5ED0E0ADFE7B000012110FB2A
:1041800006F08246FCF7B5FC0190524604FB0AF0AB
:1041900020F00301059801440198FCF778FC012206
:1041A00059462846FFF750FE810001FB00FA012125
:1041B0005046FCF79EFC0090524604FB0AF020F0AB
:1041C0000301049801440098FCF761FCDDE900124A
:1041D0005B462846FFF714FC08FB08F10246002066
:1041E0000DE000BF02EB800C09EB8003DCED000A60
:1041F00093ED000A401C30EE200A83ED000A814254
:10420000F0D81046FFF7D4FB0098FFF7D1FB0198D8
:10421000FFF7CEFB641CA4B2BC42AED302E003A005
:10422000FEF7A6FB07B04846BDE8F08F43616C6C13
:104230006F63206F75747075745F66696C746572F6
:104240005F696D616765206661696C210D0A000018
:10425000234B00202DE9F0411968890311D4BFF3E5
:104260004F8FBFF36F8F1F490860BFF34F8FBFF3AE
:104270006F8F196841F400311960BFF34F8FBFF39E
:104280006F8F1968C90322D4154970310860BFF3D4
:104290004F8F081F43F6FF740068124D1035C0F3AE
:1042A0004E31C0F3C90204EA4116104646EA80774F
:1042B0002F60401EFAD2491EF5D2BFF34F8F186807
:1042C00040F480301860BFF34F8FBFF36F8FFCF75F
:1042D000ABFFFFF7B5FCBDE8F04100F0DDBC00002E
:1042E00014ED00E050EF00E02DE9F04790ED110AE9
:1042F000D0ED100A07468846BCEEC00AFCEEE00A84
:10430000914610EE100A10EE901A85B28EB2A800F7
:104310000121FCF7EEFB040043D04946384600F08B
:10432000D9FA00210246DFED220A17E00020B0EEA4
:10433000600A0CE001FB060308EB800C401C02EB5A
:104340008303DCED001A93ED001A01EE210AB0425E
:10435000F0D304EB8100491C80ED000AA942E5D3AB
:104360004046FFF725FB4946384600F0E7F8064689
:104370003846FFF71DFB00200DE000BF06EB800272
:1043800004EB8001D2ED000A91ED000A401C30EEF2
:10439000200A81ED000AA842F0D33046FFF708FB5F
:1043A00002E004A0FEF7E4FA2046BDE8F087000032
:1043B000000000004D616C6C6F63206C696E655F7E
:1043C0006F7574206661696C210D0A0010B500F0EC
:1043D000C3F9044600F03CFA0146204600F082FB97
:1043E000012201462046FFF771FC012201462046CA
:1043F00000F040FB01220146204600F025F8022291
:1044000001462046FFF762FC02220146204600F0EA
:1044100031FB02220146204600F016F80322014635
:104420002046FFF753FC03220146204600F022FB02
:1044300003220146204600F007F801462046BDE869
:1044400010400422FFF750BF2DE9F74F80464FF090
:1044500000050298012804D0022805D003280AD1BB
:1044600021E098ED050A01E098ED090ABCEEC00ACA
:1044700010EE100A85B2029902224046FFF7ABFD0A
:104480000646A800012170437043FCF732FB070089
:1044900036D0029902224046FFF7D6FC8100002464
:1044A00001FB00F929E098ED0D0ADFE701214846FC
:1044B000FCF71FFB83464A4604FB09F020F003018A
:1044C000019801445846FCF7E2FA029A59464046E0
:1044D000FFF732FBB20082465146724304FB02F002
:1044E00020F003003844FCF7D2FA5046FFF760FA98
:1044F0005846FFF75DFA641CA4B2AC42D6D302E082
:1045000004A0FEF735FA0198FFF752FA3846BDE8E5
:10451000FE8F00004D616C6C6F63206F7574707559
:10452000745F66696C746572735F696D61676573EA
:10453000206661696C210D0A0000000070B54FF023
:10454000000501292C46B1EE000A06D0022925D02B
:1045500003295DD0042950D193E090ED042AD0EDD9
:10456000050A90ED061AD0ED001A20EE822A60EEC0
:10457000800A61EE801A22EE012AFCEEE00A22EEA9
:10458000012ABCEEE11A10EE904A22EE000A11EE6A
:10459000101ABCEEC00A10EE100A2DE090ED043A9D
:1045A000D0ED051AD0ED083A90ED091A21EE833AC4
:1045B00090ED062A61EE233AD0ED0A0A23EE023A84
:1045C000D0ED002A63EEA03A21EE001A43EE022A53
:1045D00023EEA02AFCEEC10A32EEA11A10EE904A98
:1045E00062EE001A61EE000ABCEEE10AFCEEE00A9F
:1045F00010EE100A10EE901A0D1820460121FCF75B
:1046000078FA06007ED0A1082A4600F093F882E0EE
:1046100090ED044A90ED053A90ED062AD0ED084A57
:1046200023EE044AD0ED091A90ED0C5AD0ED0D0A94
:1046300061EEA44A64EE025AD0ED003AD0ED0A2AA7
:1046400020EE855A90ED0E1A24EEA24A45EE823AEB
:1046500065EE014A60EE800A24EE812A33EE831A69
:10466000FCEEE00A22EE002A04EE221A10EE904A36
:10467000FCEEC20A31EE211A10EE900A21EE000A79
:104680003FE0D0ED044AD0ED052AD0ED063A90ED9A
:10469000004A62EEA44A90ED085A90ED092AD0ED46
:1046A000105A64EEA36AD0ED110A22EE055A90ED7D
:1046B0000A3A06EEA34A90ED0C6AD0ED0D1A65EEAB
:1046C000A05A25EE035A21EE866A74EE222A90ED56
:1046D0000E1A65EE805A66EE014A45EE032A20EE78
:1046E000806AFCEEE50A10EE900A72EE820AFCEE99
:1046F000C63A44EE810A13EE904A70EEA10A20EE0B
:10470000800A00E004E0BCEEC00A10EE101A73E765
:1047100002A0FEF72DF9304670BD00004D616C6CB3
:104720006F6320626961735F6F7574206661696C85
:10473000210D0A00074B10B51344002207E000BF0B
:10474000B3EC010A00EB8204521C84ED000A8A4299
:10475000F6D310BD0000020810B5012148208AB030
:10476000FCF7C7F904004FD000221221FFF7E2FF47
:1047700094ED0C1AD4ED0D1AD4ED0E0A94ED0F0A37
:10478000BCEEC11AFCEEE11AFCEEE00ABCEEC00A77
:104790008DED051ACDED061ACDED070A8DED080A4F
:1047A00094ED081AD4ED091AD4ED0A0A94ED0B0A17
:1047B000BCEEC11AFCEEE11AFCEEE00ABCEEC00A47
:1047C0008DED011ACDED021ACDED030A8DED040A2F
:1047D00094ED070A0FA0BCEEC00A8DED000A94ED1F
:1047E000060AD4ED050A94ED041ABCEEC00AFCEEEC
:1047F000E00ABCEEC11A10EE103A10EE902A11EE4B
:10480000101AFEF7B5F802E00CA0FEF7B1F80AB0F6
:10481000204610BD25645F25645F25645F25645FC5
:1048200025645F25645F25645F25645F25645F25DB
:10483000645F25645F25640D0A00000043616C6CB1
:104840006F632068656164206661696C210D0A00F0
:1048500070B5D0ED002A90ED023A90ED030AF0EE2B
:10486000000A72EE832A20EE203AF1EE001AB6EE2C
:10487000001AB7EE002A62EEA11A30EE422A63EE69
:10488000012A0121BCEEE11A62EE221A11EE105A41
:1048900040EE201ABCEEE10A10EE104AA000FCF730
:1048A00028F9060004D02A462146FFF743FF02E01C
:1048B00002A0FEF75DF8304670BD000043616C6CED
:1048C0006F6320696D616765206661696C210D0AFF
:1048D0000000000070B54FF0000501292C46B1EE34
:1048E000000A06D002291FD0032946D004291AD174
:1048F00076E0D0ED051A90ED042AD0ED060A90ED91
:10490000001A61EE821A21EE001A61EEA01A61EE21
:10491000A01AFCEEC10A21EE800A10EE905ABCEEFD
:10492000C00A10EE104A99E090ED043A90ED051A95
:10493000D0ED061AD0ED092A21EE033AD0ED083A5F
:1049400090ED002AD0ED0A0A23EE213A62EEA32A66
:1049500003EE212A62EEA02A62EEA00A32EE011ACC
:1049600060EE800A21EE001ABCEEE00AFCEEC10AFD
:1049700010EE104A10EE905A70E0D0ED044AD0EDDF
:10498000052A90ED061AD0ED0D3A62EEA44A90ED9C
:104990000C4A90ED003AD0ED0E0A64EE814A23EE07
:1049A000844A90ED085A90ED092A04EE813A24EEEB
:1049B000204A22EE055AD0ED0A1A24EE201A65EE9E
:1049C000213A73EE220A21EE001A43EEA10A70EE9C
:1049D000821AFCEEC10A21EE800A10EE904A39E0FC
:1049E00090ED045AD0ED052A90ED062AD0ED003A5C
:1049F00022EE855AD0ED085AD0ED091A90ED104AF2
:104A000025EE025AD0ED114A61EEA55AD0ED0A0A00
:104A100045EE023A64EE246A65EEA04A90ED0C6A17
:104A200090ED0D1A90ED0E3A73EEA22A21EE066A71
:104A300066EE805A44EEA02A26EE034ABCEEE52A32
:104A400012EE104A72EEA10A44EE030A70EE810AD9
:104A500020EE800ABCEEC00A10EE105A012120465A
:104A6000FCF747F8060003D0A1082A46FFF762FECC
:104A7000304670BD70B5012A13460D464FF0000454
:104A800004D0022B05D0032B0AD113E090ED050AC8
:104A900001E090ED090ABCEEC00A10EE101A8CB2CB
:104AA00019460122FFF797FA444300219FED0C0AB3
:104AB000444310E090ED0D0AEDE700BF05EB8100E7
:104AC000D0ED000AF5EEC00AF1EE10FA01DC80ED3F
:104AD000000A491C89B28C42F0D8284670BD0000FB
:104AE000000000002DE9F34FB6EE001AF7EE001AB1
:104AF0002DED048BB0EE009A0121D0ED030ADFED1D
:104B0000659A87B020EE890A70EEE11A20EE011A4C
:104B1000BCEEC00A21EE811A10EE104A00EE891A8E
:104B20006708BCEEC10A10EE10AAB1EE000A20EE32
:104B3000801A61EE200A20EE800ABCEEC00A10EE58
:104B4000100AFBF7D6FFA1B20690012368460022A7
:104B5000FBF7DEFDA00001210546FBF7CAFF00269A
:104B60008046B6EE008B29EE899AA4F101091AE07D
:104B700000EE106A00EE909AB8EE401AB8EE600AA5
:104B800069EE010A80EE801AB7EEC10AFDF72CFF2C
:104B9000B0EE481B08EB860000EE481B761CB7EE13
:104BA000C10B80ED000AA642E2D30026AAEB04095D
:104BB00061E001212846FBF79CFF05902A4606FB91
:104BC00007F00C9901EB80010598FBF760FFE0000E
:104BD0000121FBF78EFF824600200FE0059908EBCC
:104BE000800201EB8003D2ED000A93ED000A0AEB8C
:104BF000C001401C20EE200A81ED000AA042EDD346
:104C000051466846FBF765FD01212846FBF771FF19
:104C10008346224601465046FBF774FB002014E011
:104C200000EE104AB0EE481B0BEB8001B8EE400BD3
:104C300091ED002A401C20EE011BB7EEC20A80EE67
:104C4000012BB7EEC20B81ED000AA042E8D306FBB0
:104C500004F06A084108069800EB81005946FBF70A
:104C600016FF0598FEF7A4FE5046FEF7A1FE584633
:104C7000FEF79EFE761CB9FBF7F0401CB04298D8B8
:104C80004046FEF795FE069807B0BDEC048BBDE8E4
:104C9000FC8F0000DA0F49401148002110B50F4C7D
:104CA0000C224FF4E1330460C0E90131C160C0E976
:104CB00004128161C161016241628162FDF7E4F920
:104CC00007480021FDF7BAF905480021FDF790F9E2
:104CD000BDE810400248FDF76BB90000001001402C
:104CE0002400002410B586B0FFF7B2FAFFF76EFB80
:104CF00090ED030A0446B7EEC00A8DED040B90ED6B
:104D0000020AB7EEC00A8DED020B90ED010AB7EE74
:104D1000C00A8DED000B90ED000A06A0B7EEC00AA8
:104D200053EC102BFDF724FE2046FEF741FE06B0A3
:104D3000002010BD6D6F64656C206F7574203D2080
:104D40005B25662025662025662025665D0D0A0008
:104D5000F0B50B30154D20F007010024144A0FE088
:104D600003688B420BD38B4205D95E1A4318476800
:104D7000C3E9006700E04368136002C004E0021D5D
:104D800010680028ECD12046002802D1286808B11C
:104D90000020F0BD064A07481060074A121A22F0A8
:104DA0000702C0E9002401202860D7E71C00002486
:104DB00018000024BC000024B800042401000200F4
:104DC0000400060008000A000C001000200040004B
:104DD0008000000101010103070100000804020432
:104DE00008010101000000000102030401020304A4
:104DF0000607080900040002000600010005000380
:104E00000007800080048002800680018005800306
:104E10008007400040044002400640014005400336
:104E20004007C000C004C002C006C001C005C003E6
:104E3000C0072000200420022006200120052003B6
:104E40002007A000A004A002A006A001A005A003C6
:104E5000A0076000600460026006600160056003F6
:104E60006007E000E004E002E006E001E005E003A6
:104E7000E0071000100410021006100110051003C6
:104E80001007900090049002900690019005900306
:104E90009007500050045002500650015005500336
:104EA0005007D000D004D002D006D001D005D003E6
:104EB000D0073000300430023006300130053003B6
:104EC0003007B000B004B002B006B001B005B003C6
:104ED000B0077000700470027006700170057003F6
:104EE0007007F000F004F002F006F001F005F003A6
:104EF000F00708000804080208060801080508036E
:104F000008078800880488028806880188058803C5
:104F100088074800480448024806480148054803F5
:104F20004807C800C804C802C806C801C805C803A5
:104F3000C807280028042802280628012805280375
:104F40002807A800A804A802A806A801A805A80385
:104F5000A8076800680468026806680168056803B5
:104F60006807E800E804E802E806E801E805E80365
:104F7000E807180018041802180618011805180385
:104F800018079800980498029806980198059803C5
:104F900098075800580458025806580158055803F5
:104FA0005807D800D804D802D806D801D805D803A5
:104FB000D807380038043802380638013805380375
:104FC0003807B800B804B802B806B801B805B80385
:104FD000B8077800780478027806780178057803B5
:104FE0007807F800F804F802F806F801F805F80365
:104FF000F807040004040402040604010405040381
:1050000004078400840484028406840184058403E4
:105010008407440044044402440644014405440314
:105020004407C400C404C402C406C401C405C403C4
:10503000C407240024042402240624012405240394
:105040002407A400A404A402A406A401A405A403A4
:10505000A4076400640464026406640164056403D4
:105060006407E400E404E402E406E401E405E40384
:10507000E4071400140414021406140114051403A4
:1050800014079400940494029406940194059403E4
:105090009407540054045402540654015405540314
:1050A0005407D400D404D402D406D401D405D403C4
:1050B000D407340034043402340634013405340394
:1050C0003407B400B404B402B406B401B405B403A4
:1050D000B4077400740474027406740174057403D4
:1050E0007407F400F404F402F406F401F405F40384
:1050F000F4070C000C040C020C060C010C050C034C
:105100000C078C008C048C028C068C018C058C03A3
:105110008C074C004C044C024C064C014C054C03D3
:105120004C07CC00CC04CC02CC06CC01CC05CC0383
:10513000CC072C002C042C022C062C012C052C0353
:105140002C07AC00AC04AC02AC06AC01AC05AC0363
:10515000AC076C006C046C026C066C016C056C0393
:105160006C07EC00EC04EC02EC06EC01EC05EC0343
:10517000EC071C001C041C021C061C011C051C0363
:105180001C079C009C049C029C069C019C059C03A3
:105190009C075C005C045C025C065C015C055C03D3
:1051A0005C07DC00DC04DC02DC06DC01DC05DC0383
:1051B000DC073C003C043C023C063C013C053C0353
:1051C0003C07BC00BC04BC02BC06BC01BC05BC0363
:1051D000BC077C007C047C027C067C017C057C0393
:1051E0007C07FC00FC04FC02FC06FC01FC05FC0343
:1051F000FC07020002040202020602010205020389
:1052000002078200820482028206820182058203F2
:105210008207420042044202420642014205420322
:105220004207C200C204C202C206C201C205C203D2
:10523000C2072200220422022206220122052203A2
:105240002207A200A204A202A206A201A205A203B2
:10525000A2076200620462026206620162056203E2
:105260006207E200E204E202E206E201E205E20392
:10527000E2071200120412021206120112051203B2
:1052800012079200920492029206920192059203F2
:105290009207520052045202520652015205520322
:1052A0005207D200D204D202D206D201D205D203D2
:1052B000D2073200320432023206320132053203A2
:1052C0003207B200B204B202B206B201B205B203B2
:1052D000B2077200720472027206720172057203E2
:1052E0007207F200F204F202F206F201F205F20392
:1052F000F2070A000A040A020A060A010A050A035A
:105300000A078A008A048A028A068A018A058A03B1
:105310008A074A004A044A024A064A014A054A03E1
:105320004A07CA00CA04CA02CA06CA01CA05CA0391
:10533000CA072A002A042A022A062A012A052A0361
:105340002A07AA00AA04AA02AA06AA01AA05AA0371
:10535000AA076A006A046A026A066A016A056A03A1
:105360006A07EA00EA04EA02EA06EA01EA05EA0351
:10537000EA071A001A041A021A061A011A051A0371
:105380001A079A009A049A029A069A019A059A03B1
:105390009A075A005A045A025A065A015A055A03E1
:1053A0005A07DA00DA04DA02DA06DA01DA05DA0391
:1053B000DA073A003A043A023A063A013A053A0361
:1053C0003A07BA00BA04BA02BA06BA01BA05BA0371
:1053D000BA077A007A047A027A067A017A057A03A1
:1053E0007A07FA00FA04FA02FA06FA01FA05FA0351
:1053F000FA0706000604060206060601060506036D
:1054000006078600860486028606860186058603D0
:105410008607460046044602460646014605460300
:105420004607C600C604C602C606C601C605C603B0
:10543000C607260026042602260626012605260380
:105440002607A600A604A602A606A601A605A60390
:10545000A6076600660466026606660166056603C0
:105460006607E600E604E602E606E601E605E60370
:10547000E607160016041602160616011605160390
:1054800016079600960496029606960196059603D0
:105490009607560056045602560656015605560300
:1054A0005607D600D604D602D606D601D605D603B0
:1054B000D607360036043602360636013605360380
:1054C0003607B600B604B602B606B601B605B60390
:1054D000B6077600760476027606760176057603C0
:1054E0007607F600F604F602F606F601F605F60370
:1054F000F6070E000E040E020E060E010E050E0338
:105500000E078E008E048E028E068E018E058E038F
:105510008E074E004E044E024E064E014E054E03BF
:105520004E07CE00CE04CE02CE06CE01CE05CE036F
:10553000CE072E002E042E022E062E012E052E033F
:105540002E07AE00AE04AE02AE06AE01AE05AE034F
:10555000AE076E006E046E026E066E016E056E037F
:105560006E07EE00EE04EE02EE06EE01EE05EE032F
:10557000EE071E001E041E021E061E011E051E034F
:105580001E079E009E049E029E069E019E059E038F
:105590009E075E005E045E025E065E015E055E03BF
:1055A0005E07DE00DE04DE02DE06DE01DE05DE036F
:1055B000DE073E003E043E023E063E013E053E033F
:1055C0003E07BE00BE04BE02BE06BE01BE05BE034F
:1055D000BE077E007E047E027E067E017E057E037F
:1055E0007E07FE00FE04FE02FE06FE01FE05FE032F
:1055F000FE0701000000803F00000000ECFF7F3F3D
:10560000D40FC93AB1FF7F3FC70F493B4EFF7F3FE1
:10561000C1CB963BC4FE7F3F890FC93B13FE7F3F42
:105620003053FB3B39FD7F3F59CB163C39FC7F3F64
:1056300002ED2F3C11FB7F3F900E493CC1F97F3FAB
:105640000030623C4AF87F3F4B517B3CACF67F3FD9
:1056500038398A3CE6F47F3FB6C9963CF8F27F3F82
:105660001C5AA33CE3F07F3F69EAAF3CA7EE7F3FC3
:105670009B7ABC3C43EC7F3FB00AC93CB8E97F3F12
:10568000A69AD53C05E77F3F7B2AE23C2BE47F3F8F
:105690002DBAEE3C29E17F3FB949FB3C00DE7F3F5C
:1056A00090EC033DAFDA7F3F2F340A3D37D77F3F81
:1056B000B87B103D98D37F3F2CC3163DD1CF7F3FA1
:1056C000880A1D3DE2CB7F3FCC51233DCCC77F3FB5
:1056D000F698293D8FC37F3F07E02F3D2ABF7F3FCC
:1056E000FC26363D9EBA7F3FD56D3C3DEAB57F3FF7
:1056F00091B4423D0FB17F3F2FFB483D0DAC7F3F42
:10570000AF414F3DE3A67F3F0E88553D91A17F3FBE
:105710004CCE5B3D189C7F3F6814623D78967F3F7E
:10572000625A683DB1907F3F38A06E3DC28A7F3F8C
:10573000E9E5743DAB847F3F742B7B3D6D7E7F3FFD
:105740006CB8803D08787F3F0ADB833D7B717F3FEB
:1057500094FD863DC76A7F3F0A208A3DEC637F3F08
:105760006A428D3DE95C7F3FB464903DBF557F3F09
:10577000E786933D6D4E7F3F05A9963DF4467F3FFA
:105780000ACB993D543F7F3FF9EC9C3D8D377F3FDD
:10579000CF0EA03D9D2F7F3F8C30A33D87277F3FBD
:1057A0003052A63D491F7F3FBA73A93DE4167F3FA3
:1057B0002B95AC3D580E7F3F80B6AF3DA4057F3F93
:1057C000BBD7B23DC9FC7E3FDAF8B53DC7F37E3F9B
:1057D000DD19B93D9DEA7E3FC33ABC3D4CE17E3FB9
:1057E0008D5BBF3DD4D77E3F397CC23D34CE7E3FFA
:1057F000C69CC53D6DC47E3F36BDC83D7FBA7E3F69
:1058000086DDCB3D69B07E3FB7FDCE3D2DA67E3F08
:10581000C81DD23DC99B7E3FB93DD53D3D917E3FE0
:10582000895DD83D8B867E3F377DDB3DB17B7E3FFA
:10583000C49CDE3DB0707E3F2EBCE13D88657E3F5E
:1058400076DBE43D385A7E3F9AFAE73DC14E7E3F13
:105850009A19EB3D23437E3F7638EE3D5E377E3F1F
:105860002E57F13D722B7E3FC075F43D5E1F7E3F8B
:105870002C94F73D24137E3F73B2FA3DC2067E3F5F
:1058800092D0FD3D38FA7D3F4577003E88ED7D3F63
:105890002E06023EB1E07D3F0295033EB2D37D3F2E
:1058A000C223053E8CC67D3F6EB2063E40B97D3FA9
:1058B0000541083ECCAB7D3F86CF093E309E7D3F03
:1058C000F35D0B3E6E907D3F4AEC0C3E85827D3F42
:1058D0008B7A0E3E74747D3FB708103E3D667D3F67
:1058E000CC96113EDE577D3FCA24133E59497D3F79
:1058F000B2B2143EAC3A7D3F8340163ED82B7D3F7A
:105900003DCE173EDD1C7D3FE05B193EBC0D7D3F6B
:105910006BE91A3E73FE7C3FDE761C3E03EF7C3F54
:1059200038041E3E6CDF7C3F7B911F3EAECF7C3F38
:10593000A51E213EC9BF7C3FB6AB223EBDAF7C3F1A
:10594000AD38243E8A9F7C3F8CC5253E318F7C3FFD
:105950005152273EB07E7C3FFCDE283E086E7C3FE5
:105960008D6B2A3E3A5D7C3F04F82B3E444C7C3FD5
:1059700061842D3E283B7C3FA2102F3EE5297C3FD1
:10598000C99C303E7A187C3FD428323EE9067C3FE1
:10599000C4B4333E31F57B3F9840353E53E37B3F03
:1059A00050CC363E4DD17B3FEC57383E20BF7B3F3D
:1059B0006CE3393ECDAC7B3FCF6E3B3E539A7B3F91
:1059C00015FA3C3EB2877B3F3E853E3EEA747B3F04
:1059D0004910403EFC617B3F379B413EE74E7B3F99
:1059E0000726433EAB3B7B3FB9B0443E48287B3F54
:1059F0004D3B463EBE147B3FC2C5473E0E017B3F3A
:105A00001850493E37ED7A3F4FDA4A3E3AD97A3F4D
:105A100067644C3E16C57A3F60EE4D3ECBB07A3F90
:105A200038784F3E599C7A3FF101513EC1877A3F09
:105A3000898B523E02737A3F0115543E1C5E7A3FB9
:105A4000589E553E10497A3F8F27573EDD337A3FA7
:105A5000A4B0583E841E7A3F97395A3E04097A3FD3
:105A60006AC25B3E5EF3793F1A4B5D3E91DD793F42
:105A7000A8D35E3E9DC7793F135C603E83B1793FFA
:105A80005CE4613E439B793F836C633EDC84793FF9
:105A900086F4643E4E6E793F667C663E9A57793F47
:105AA0002204683EC040793FBA8B693EBF29793FE6
:105AB0002F136B3E9812793F7F9A6C3E4AFB783FDA
:105AC000AB216E3ED6E3783FB2A86F3E3BCC783F29
:105AD000942F713E7BB4783F51B6723E939C783FD1
